{
  "address": "0x5FbDB2315678afecb367f032d93F642f64180aa3",
  "abi": [
    {
      "inputs": [
        {
          "internalType": "bytes32",
          "name": "message",
          "type": "bytes32"
        },
        {
          "internalType": "address",
          "name": "signer",
          "type": "address"
        },
        {
          "internalType": "bytes",
          "name": "signature",
          "type": "bytes"
        }
      ],
      "name": "verifySignature",
      "outputs": [
        {
          "internalType": "bool",
          "name": "",
          "type": "bool"
        }
      ],
      "stateMutability": "pure",
      "type": "function"
    }
  ],
  "transactionHash": "0x40c91c0fd1e41cef549238c9e9653b289dbe0b66c453db552a4ff2fc358c147c",
  "args": [],
  "numDeployments": 1,
  "solcInputHash": "b6898264094bc44b15a7e1ec663921aa",
  "bytecode": "0x608060405234801561001057600080fd5b5061091e806100206000396000f3fe608060405234801561001057600080fd5b506004361061002b5760003560e01c806398a3410d14610030575b600080fd5b61004a6004803603810190610045919061058b565b610060565b6040516100579190610615565b60405180910390f35b6000808460405160200161007491906106a8565b60405160208183030381529060405280519060200120905060006100a184836100dd90919063ffffffff16565b90508073ffffffffffffffffffffffffffffffffffffffff168573ffffffffffffffffffffffffffffffffffffffff1614925050509392505050565b60008060006100ec8585610104565b915091506100f981610155565b819250505092915050565b60008060418351036101455760008060006020860151925060408601519150606086015160001a9050610139878285856102bb565b9450945050505061014e565b60006002915091505b9250929050565b60006004811115610169576101686106ce565b5b81600481111561017c5761017b6106ce565b5b03156102b85760016004811115610196576101956106ce565b5b8160048111156101a9576101a86106ce565b5b036101e9576040517f08c379a00000000000000000000000000000000000000000000000000000000081526004016101e09061075a565b60405180910390fd5b600260048111156101fd576101fc6106ce565b5b8160048111156102105761020f6106ce565b5b03610250576040517f08c379a0000000000000000000000000000000000000000000000000000000008152600401610247906107c6565b60405180910390fd5b60036004811115610264576102636106ce565b5b816004811115610277576102766106ce565b5b036102b7576040517f08c379a00000000000000000000000000000000000000000000000000000000081526004016102ae90610858565b60405180910390fd5b5b50565b6000807f7fffffffffffffffffffffffffffffff5d576e7357a4501ddfe92f46681b20a08360001c11156102f6576000600391509150610394565b60006001878787876040516000815260200160405260405161031b94939291906108a3565b6020604051602081039080840390855afa15801561033d573d6000803e3d6000fd5b505050602060405103519050600073ffffffffffffffffffffffffffffffffffffffff168173ffffffffffffffffffffffffffffffffffffffff160361038b57600060019250925050610394565b80600092509250505b94509492505050565b6000604051905090565b600080fd5b600080fd5b6000819050919050565b6103c4816103b1565b81146103cf57600080fd5b50565b6000813590506103e1816103bb565b92915050565b600073ffffffffffffffffffffffffffffffffffffffff82169050919050565b6000610412826103e7565b9050919050565b61042281610407565b811461042d57600080fd5b50565b60008135905061043f81610419565b92915050565b600080fd5b600080fd5b6000601f19601f8301169050919050565b7f4e487b7100000000000000000000000000000000000000000000000000000000600052604160045260246000fd5b6104988261044f565b810181811067ffffffffffffffff821117156104b7576104b6610460565b5b80604052505050565b60006104ca61039d565b90506104d6828261048f565b919050565b600067ffffffffffffffff8211156104f6576104f5610460565b5b6104ff8261044f565b9050602081019050919050565b82818337600083830152505050565b600061052e610529846104db565b6104c0565b90508281526020810184848401111561054a5761054961044a565b5b61055584828561050c565b509392505050565b600082601f83011261057257610571610445565b5b813561058284826020860161051b565b91505092915050565b6000806000606084860312156105a4576105a36103a7565b5b60006105b2868287016103d2565b93505060206105c386828701610430565b925050604084013567ffffffffffffffff8111156105e4576105e36103ac565b5b6105f08682870161055d565b9150509250925092565b60008115159050919050565b61060f816105fa565b82525050565b600060208201905061062a6000830184610606565b92915050565b600081905092915050565b7f19457468657265756d205369676e6564204d6573736167653a0a333200000000600082015250565b6000610671601c83610630565b915061067c8261063b565b601c82019050919050565b6000819050919050565b6106a261069d826103b1565b610687565b82525050565b60006106b382610664565b91506106bf8284610691565b60208201915081905092915050565b7f4e487b7100000000000000000000000000000000000000000000000000000000600052602160045260246000fd5b600082825260208201905092915050565b7f45434453413a20696e76616c6964207369676e61747572650000000000000000600082015250565b60006107446018836106fd565b915061074f8261070e565b602082019050919050565b6000602082019050818103600083015261077381610737565b9050919050565b7f45434453413a20696e76616c6964207369676e6174757265206c656e67746800600082015250565b60006107b0601f836106fd565b91506107bb8261077a565b602082019050919050565b600060208201905081810360008301526107df816107a3565b9050919050565b7f45434453413a20696e76616c6964207369676e6174757265202773272076616c60008201527f7565000000000000000000000000000000000000000000000000000000000000602082015250565b60006108426022836106fd565b915061084d826107e6565b604082019050919050565b6000602082019050818103600083015261087181610835565b9050919050565b610881816103b1565b82525050565b600060ff82169050919050565b61089d81610887565b82525050565b60006080820190506108b86000830187610878565b6108c56020830186610894565b6108d26040830185610878565b6108df6060830184610878565b9594505050505056fea264697066735822122080ed9eb4789e7e4b99500b3106c6cb44954d27fa8f6c7b0b71505cb22358364e64736f6c63430008120033",
  "devdoc": {
    "kind": "dev",
    "methods": {},
    "version": 1
  },
  "userdoc": {
    "kind": "user",
    "methods": {},
    "version": 1
  },
  "storageLayout": {
    "storage": [],
    "types": null
  }
}