{
  "address": "0x2597773d947bA3d6Fa2a9A303671838cd6e107f1",
  "abi": [
    {
      "inputs": [],
      "stateMutability": "nonpayable",
      "type": "constructor"
    },
    {
      "inputs": [],
      "name": "InvalidSignatureError",
      "type": "error"
    },
    {
      "inputs": [],
      "name": "RefereeIsUserError",
      "type": "error"
    },
    {
      "inputs": [],
      "name": "SignatureAlreadyUsedError",
      "type": "error"
    },
    {
      "inputs": [],
      "name": "TaskNumberDoesNotExistError",
      "type": "error"
    },
    {
      "inputs": [],
      "name": "UserAlreadyCompletedTaskError",
      "type": "error"
    },
    {
      "anonymous": false,
      "inputs": [
        {
          "indexed": true,
          "internalType": "address",
          "name": "previousOwner",
          "type": "address"
        },
        {
          "indexed": true,
          "internalType": "address",
          "name": "newOwner",
          "type": "address"
        }
      ],
      "name": "OwnershipTransferred",
      "type": "event"
    },
    {
      "inputs": [
        {
          "internalType": "uint256",
          "name": "_prize",
          "type": "uint256"
        }
      ],
      "name": "addTask",
      "outputs": [],
      "stateMutability": "nonpayable",
      "type": "function"
    },
    {
      "inputs": [
        {
          "internalType": "uint256",
          "name": "_task",
          "type": "uint256"
        }
      ],
      "name": "getTaskToPrize",
      "outputs": [
        {
          "internalType": "uint256",
          "name": "",
          "type": "uint256"
        }
      ],
      "stateMutability": "view",
      "type": "function"
    },
    {
      "inputs": [
        {
          "internalType": "address",
          "name": "_user",
          "type": "address"
        }
      ],
      "name": "getUserBalance",
      "outputs": [
        {
          "internalType": "uint256",
          "name": "",
          "type": "uint256"
        }
      ],
      "stateMutability": "view",
      "type": "function"
    },
    {
      "inputs": [
        {
          "internalType": "address",
          "name": "_user",
          "type": "address"
        },
        {
          "internalType": "uint256",
          "name": "_task",
          "type": "uint256"
        }
      ],
      "name": "getUserCompletedTasks",
      "outputs": [
        {
          "internalType": "bool",
          "name": "",
          "type": "bool"
        }
      ],
      "stateMutability": "view",
      "type": "function"
    },
    {
      "inputs": [
        {
          "internalType": "address",
          "name": "_user",
          "type": "address"
        }
      ],
      "name": "getUserReferee",
      "outputs": [
        {
          "internalType": "address",
          "name": "",
          "type": "address"
        }
      ],
      "stateMutability": "view",
      "type": "function"
    },
    {
      "inputs": [],
      "name": "owner",
      "outputs": [
        {
          "internalType": "address",
          "name": "",
          "type": "address"
        }
      ],
      "stateMutability": "view",
      "type": "function"
    },
    {
      "inputs": [],
      "name": "renounceOwnership",
      "outputs": [],
      "stateMutability": "nonpayable",
      "type": "function"
    },
    {
      "inputs": [
        {
          "internalType": "uint256",
          "name": "_taskNumber",
          "type": "uint256"
        },
        {
          "internalType": "uint256",
          "name": "_prize",
          "type": "uint256"
        }
      ],
      "name": "setPrizeForTask",
      "outputs": [],
      "stateMutability": "nonpayable",
      "type": "function"
    },
    {
      "inputs": [
        {
          "internalType": "address",
          "name": "_referee",
          "type": "address"
        }
      ],
      "name": "setReferee",
      "outputs": [],
      "stateMutability": "nonpayable",
      "type": "function"
    },
    {
      "inputs": [],
      "name": "taskCount",
      "outputs": [
        {
          "internalType": "uint256",
          "name": "",
          "type": "uint256"
        }
      ],
      "stateMutability": "view",
      "type": "function"
    },
    {
      "inputs": [
        {
          "internalType": "address",
          "name": "newOwner",
          "type": "address"
        }
      ],
      "name": "transferOwnership",
      "outputs": [],
      "stateMutability": "nonpayable",
      "type": "function"
    },
    {
      "inputs": [
        {
          "internalType": "bytes32",
          "name": "_hashedMessage",
          "type": "bytes32"
        },
        {
          "internalType": "uint8",
          "name": "_v",
          "type": "uint8"
        },
        {
          "internalType": "bytes32",
          "name": "_r",
          "type": "bytes32"
        },
        {
          "internalType": "bytes32",
          "name": "_s",
          "type": "bytes32"
        },
        {
          "internalType": "uint256",
          "name": "_taskNumber",
          "type": "uint256"
        }
      ],
      "name": "verifyMessage",
      "outputs": [],
      "stateMutability": "nonpayable",
      "type": "function"
    }
  ],
  "transactionHash": "0x4450ff9273e5a1c6daa4ed850f9d9f318f9ec9e905b4474d5b55da901ec81b36",
  "args": [],
  "numDeployments": 4,
  "solcInputHash": "6a5a3c6961501004dcf41f519e8533d9",
  "bytecode": "0x60a060405234801561001057600080fd5b5061002d61002261006e60201b60201c565b61007660201b60201c565b3373ffffffffffffffffffffffffffffffffffffffff1660808173ffffffffffffffffffffffffffffffffffffffff1681525050600060018190555061013a565b600033905090565b60008060009054906101000a900473ffffffffffffffffffffffffffffffffffffffff169050816000806101000a81548173ffffffffffffffffffffffffffffffffffffffff021916908373ffffffffffffffffffffffffffffffffffffffff1602179055508173ffffffffffffffffffffffffffffffffffffffff168173ffffffffffffffffffffffffffffffffffffffff167f8be0079c531659141344cd1fd0a4f28419497f9722a3daafe3b4186f6b6457e060405160405180910390a35050565b60805161132a6101556000396000610550015261132a6000f3fe608060405234801561001057600080fd5b50600436106100b45760003560e01c8063b911c8c811610071578063b911c8c81461017b578063ba73cfc514610197578063c4a796c1146101b3578063cad22fd9146101cf578063d113efc4146101ff578063f2fde38b1461022f576100b4565b8063400d7881146100b957806347734892146100e9578063715018a6146101195780638da5cb5b146101235780639e291e3a14610141578063b6cb58a51461015d575b600080fd5b6100d360048036038101906100ce9190610d11565b61024b565b6040516100e09190610d4d565b60405180910390f35b61010360048036038101906100fe9190610dc6565b610268565b6040516101109190610d4d565b60405180910390f35b6101216102b1565b005b61012b6102c5565b6040516101389190610e02565b60405180910390f35b61015b60048036038101906101569190610e1d565b6102ee565b005b61016561034e565b6040516101729190610d4d565b60405180910390f35b61019560048036038101906101909190610ecc565b610354565b005b6101b160048036038101906101ac9190610d11565b610839565b005b6101cd60048036038101906101c89190610dc6565b610876565b005b6101e960048036038101906101e49190610f47565b610a38565b6040516101f69190610fa2565b60405180910390f35b61021960048036038101906102149190610dc6565b610aa0565b6040516102269190610e02565b60405180910390f35b61024960048036038101906102449190610dc6565b610b09565b005b600060026000838152602001908152602001600020549050919050565b6000600560008373ffffffffffffffffffffffffffffffffffffffff1673ffffffffffffffffffffffffffffffffffffffff168152602001908152602001600020549050919050565b6102b9610b8c565b6102c36000610c0a565b565b60008060009054906101000a900473ffffffffffffffffffffffffffffffffffffffff16905090565b6102f6610b8c565b600154821115610332576040517f6002761f00000000000000000000000000000000000000000000000000000000815260040160405180910390fd5b8060026000848152602001908152602001600020819055505050565b60015481565b600154811115610390576040517f6002761f00000000000000000000000000000000000000000000000000000000815260040160405180910390fd5b600360003373ffffffffffffffffffffffffffffffffffffffff1673ffffffffffffffffffffffffffffffffffffffff168152602001908152602001600020600082815260200190815260200160002060009054906101000a900460ff1615610425576040517f759136a200000000000000000000000000000000000000000000000000000000815260040160405180910390fd5b6004600086815260200190815260200160002060009054906101000a900460ff161561047d576040517f3f2fb4ea00000000000000000000000000000000000000000000000000000000815260040160405180910390fd5b60006040518060400160405280601c81526020017f19457468657265756d205369676e6564204d6573736167653a0a3332000000008152509050600081876040516020016104cc92919061104f565b6040516020818303038152906040528051906020012090506000600182888888604051600081526020016040526040516105099493929190611095565b6020604051602081039080840390855afa15801561052b573d6000803e3d6000fd5b5050506020604051035190508073ffffffffffffffffffffffffffffffffffffffff167f000000000000000000000000000000000000000000000000000000000000000073ffffffffffffffffffffffffffffffffffffffff16036107fd576001600360003373ffffffffffffffffffffffffffffffffffffffff1673ffffffffffffffffffffffffffffffffffffffff168152602001908152602001600020600086815260200190815260200160002060006101000a81548160ff02191690831515021790555060006002600086815260200190815260200160002054905080600560003373ffffffffffffffffffffffffffffffffffffffff1673ffffffffffffffffffffffffffffffffffffffff168152602001908152602001600020600082825461065a9190611109565b925050819055506001600460008b815260200190815260200160002060006101000a81548160ff0219169083151502179055506000600660003373ffffffffffffffffffffffffffffffffffffffff1673ffffffffffffffffffffffffffffffffffffffff16815260200190815260200160002060009054906101000a900473ffffffffffffffffffffffffffffffffffffffff169050600073ffffffffffffffffffffffffffffffffffffffff168173ffffffffffffffffffffffffffffffffffffffff16146107f6576000600a83610734919061116c565b90506000603284610745919061116c565b905081600560008573ffffffffffffffffffffffffffffffffffffffff1673ffffffffffffffffffffffffffffffffffffffff16815260200190815260200160002060008282546107969190611109565b9250508190555080600560003373ffffffffffffffffffffffffffffffffffffffff1673ffffffffffffffffffffffffffffffffffffffff16815260200190815260200160002060008282546107ec9190611109565b9250508190555050505b505061082f565b6040517fd9681a8600000000000000000000000000000000000000000000000000000000815260040160405180910390fd5b5050505050505050565b610841610b8c565b600160008154809291906108549061119d565b9190505550806002600060015481526020019081526020016000208190555050565b3373ffffffffffffffffffffffffffffffffffffffff168173ffffffffffffffffffffffffffffffffffffffff16036108db576040517f9d08223000000000000000000000000000000000000000000000000000000000815260040160405180910390fd5b600760003373ffffffffffffffffffffffffffffffffffffffff1673ffffffffffffffffffffffffffffffffffffffff16815260200190815260200160002060009054906101000a900460ff161561095f576040517f9d08223000000000000000000000000000000000000000000000000000000000815260040160405180910390fd5b80600660003373ffffffffffffffffffffffffffffffffffffffff1673ffffffffffffffffffffffffffffffffffffffff16815260200190815260200160002060006101000a81548173ffffffffffffffffffffffffffffffffffffffff021916908373ffffffffffffffffffffffffffffffffffffffff1602179055506001600760003373ffffffffffffffffffffffffffffffffffffffff1673ffffffffffffffffffffffffffffffffffffffff16815260200190815260200160002060006101000a81548160ff02191690831515021790555050565b6000600360008473ffffffffffffffffffffffffffffffffffffffff1673ffffffffffffffffffffffffffffffffffffffff168152602001908152602001600020600083815260200190815260200160002060009054906101000a900460ff16905092915050565b6000600660008373ffffffffffffffffffffffffffffffffffffffff1673ffffffffffffffffffffffffffffffffffffffff16815260200190815260200160002060009054906101000a900473ffffffffffffffffffffffffffffffffffffffff169050919050565b610b11610b8c565b600073ffffffffffffffffffffffffffffffffffffffff168173ffffffffffffffffffffffffffffffffffffffff1603610b80576040517f08c379a0000000000000000000000000000000000000000000000000000000008152600401610b7790611268565b60405180910390fd5b610b8981610c0a565b50565b610b94610cce565b73ffffffffffffffffffffffffffffffffffffffff16610bb26102c5565b73ffffffffffffffffffffffffffffffffffffffff1614610c08576040517f08c379a0000000000000000000000000000000000000000000000000000000008152600401610bff906112d4565b60405180910390fd5b565b60008060009054906101000a900473ffffffffffffffffffffffffffffffffffffffff169050816000806101000a81548173ffffffffffffffffffffffffffffffffffffffff021916908373ffffffffffffffffffffffffffffffffffffffff1602179055508173ffffffffffffffffffffffffffffffffffffffff168173ffffffffffffffffffffffffffffffffffffffff167f8be0079c531659141344cd1fd0a4f28419497f9722a3daafe3b4186f6b6457e060405160405180910390a35050565b600033905090565b600080fd5b6000819050919050565b610cee81610cdb565b8114610cf957600080fd5b50565b600081359050610d0b81610ce5565b92915050565b600060208284031215610d2757610d26610cd6565b5b6000610d3584828501610cfc565b91505092915050565b610d4781610cdb565b82525050565b6000602082019050610d626000830184610d3e565b92915050565b600073ffffffffffffffffffffffffffffffffffffffff82169050919050565b6000610d9382610d68565b9050919050565b610da381610d88565b8114610dae57600080fd5b50565b600081359050610dc081610d9a565b92915050565b600060208284031215610ddc57610ddb610cd6565b5b6000610dea84828501610db1565b91505092915050565b610dfc81610d88565b82525050565b6000602082019050610e176000830184610df3565b92915050565b60008060408385031215610e3457610e33610cd6565b5b6000610e4285828601610cfc565b9250506020610e5385828601610cfc565b9150509250929050565b6000819050919050565b610e7081610e5d565b8114610e7b57600080fd5b50565b600081359050610e8d81610e67565b92915050565b600060ff82169050919050565b610ea981610e93565b8114610eb457600080fd5b50565b600081359050610ec681610ea0565b92915050565b600080600080600060a08688031215610ee857610ee7610cd6565b5b6000610ef688828901610e7e565b9550506020610f0788828901610eb7565b9450506040610f1888828901610e7e565b9350506060610f2988828901610e7e565b9250506080610f3a88828901610cfc565b9150509295509295909350565b60008060408385031215610f5e57610f5d610cd6565b5b6000610f6c85828601610db1565b9250506020610f7d85828601610cfc565b9150509250929050565b60008115159050919050565b610f9c81610f87565b82525050565b6000602082019050610fb76000830184610f93565b92915050565b600081519050919050565b600081905092915050565b60005b83811015610ff1578082015181840152602081019050610fd6565b60008484015250505050565b600061100882610fbd565b6110128185610fc8565b9350611022818560208601610fd3565b80840191505092915050565b6000819050919050565b61104961104482610e5d565b61102e565b82525050565b600061105b8285610ffd565b91506110678284611038565b6020820191508190509392505050565b61108081610e5d565b82525050565b61108f81610e93565b82525050565b60006080820190506110aa6000830187611077565b6110b76020830186611086565b6110c46040830185611077565b6110d16060830184611077565b95945050505050565b7f4e487b7100000000000000000000000000000000000000000000000000000000600052601160045260246000fd5b600061111482610cdb565b915061111f83610cdb565b9250828201905080821115611137576111366110da565b5b92915050565b7f4e487b7100000000000000000000000000000000000000000000000000000000600052601260045260246000fd5b600061117782610cdb565b915061118283610cdb565b9250826111925761119161113d565b5b828204905092915050565b60006111a882610cdb565b91507fffffffffffffffffffffffffffffffffffffffffffffffffffffffffffffffff82036111da576111d96110da565b5b600182019050919050565b600082825260208201905092915050565b7f4f776e61626c653a206e6577206f776e657220697320746865207a65726f206160008201527f6464726573730000000000000000000000000000000000000000000000000000602082015250565b60006112526026836111e5565b915061125d826111f6565b604082019050919050565b6000602082019050818103600083015261128181611245565b9050919050565b7f4f776e61626c653a2063616c6c6572206973206e6f7420746865206f776e6572600082015250565b60006112be6020836111e5565b91506112c982611288565b602082019050919050565b600060208201905081810360008301526112ed816112b1565b905091905056fea26469706673582212203c72801f6845e1ae6ed3e5c192cb18d8794c9aa42b44f081257a6d675074e01a64736f6c63430008120033",
  "devdoc": {
    "kind": "dev",
    "methods": {
      "owner()": {
        "details": "Returns the address of the current owner."
      },
      "renounceOwnership()": {
        "details": "Leaves the contract without owner. It will not be possible to call `onlyOwner` functions. Can only be called by the current owner. NOTE: Renouncing ownership will leave the contract without an owner, thereby disabling any functionality that is only available to the owner."
      },
      "transferOwnership(address)": {
        "details": "Transfers ownership of the contract to a new account (`newOwner`). Can only be called by the current owner."
      }
    },
    "version": 1
  },
  "userdoc": {
    "kind": "user",
    "methods": {},
    "version": 1
  },
  "storageLayout": {
    "storage": [
      {
        "astId": 7,
        "contract": "contracts/SignatureVerification.sol:SignatureVerification",
        "label": "_owner",
        "offset": 0,
        "slot": "0",
        "type": "t_address"
      },
      {
        "astId": 163,
        "contract": "contracts/SignatureVerification.sol:SignatureVerification",
        "label": "taskCount",
        "offset": 0,
        "slot": "1",
        "type": "t_uint256"
      },
      {
        "astId": 167,
        "contract": "contracts/SignatureVerification.sol:SignatureVerification",
        "label": "taskToPrize",
        "offset": 0,
        "slot": "2",
        "type": "t_mapping(t_uint256,t_uint256)"
      },
      {
        "astId": 173,
        "contract": "contracts/SignatureVerification.sol:SignatureVerification",
        "label": "userTaskCompleted",
        "offset": 0,
        "slot": "3",
        "type": "t_mapping(t_address,t_mapping(t_uint256,t_bool))"
      },
      {
        "astId": 177,
        "contract": "contracts/SignatureVerification.sol:SignatureVerification",
        "label": "usedSignatures",
        "offset": 0,
        "slot": "4",
        "type": "t_mapping(t_bytes32,t_bool)"
      },
      {
        "astId": 181,
        "contract": "contracts/SignatureVerification.sol:SignatureVerification",
        "label": "userPrizeBalance",
        "offset": 0,
        "slot": "5",
        "type": "t_mapping(t_address,t_uint256)"
      },
      {
        "astId": 185,
        "contract": "contracts/SignatureVerification.sol:SignatureVerification",
        "label": "userReferee",
        "offset": 0,
        "slot": "6",
        "type": "t_mapping(t_address,t_address)"
      },
      {
        "astId": 189,
        "contract": "contracts/SignatureVerification.sol:SignatureVerification",
        "label": "userSetReferee",
        "offset": 0,
        "slot": "7",
        "type": "t_mapping(t_address,t_bool)"
      }
    ],
    "types": {
      "t_address": {
        "encoding": "inplace",
        "label": "address",
        "numberOfBytes": "20"
      },
      "t_bool": {
        "encoding": "inplace",
        "label": "bool",
        "numberOfBytes": "1"
      },
      "t_bytes32": {
        "encoding": "inplace",
        "label": "bytes32",
        "numberOfBytes": "32"
      },
      "t_mapping(t_address,t_address)": {
        "encoding": "mapping",
        "key": "t_address",
        "label": "mapping(address => address)",
        "numberOfBytes": "32",
        "value": "t_address"
      },
      "t_mapping(t_address,t_bool)": {
        "encoding": "mapping",
        "key": "t_address",
        "label": "mapping(address => bool)",
        "numberOfBytes": "32",
        "value": "t_bool"
      },
      "t_mapping(t_address,t_mapping(t_uint256,t_bool))": {
        "encoding": "mapping",
        "key": "t_address",
        "label": "mapping(address => mapping(uint256 => bool))",
        "numberOfBytes": "32",
        "value": "t_mapping(t_uint256,t_bool)"
      },
      "t_mapping(t_address,t_uint256)": {
        "encoding": "mapping",
        "key": "t_address",
        "label": "mapping(address => uint256)",
        "numberOfBytes": "32",
        "value": "t_uint256"
      },
      "t_mapping(t_bytes32,t_bool)": {
        "encoding": "mapping",
        "key": "t_bytes32",
        "label": "mapping(bytes32 => bool)",
        "numberOfBytes": "32",
        "value": "t_bool"
      },
      "t_mapping(t_uint256,t_bool)": {
        "encoding": "mapping",
        "key": "t_uint256",
        "label": "mapping(uint256 => bool)",
        "numberOfBytes": "32",
        "value": "t_bool"
      },
      "t_mapping(t_uint256,t_uint256)": {
        "encoding": "mapping",
        "key": "t_uint256",
        "label": "mapping(uint256 => uint256)",
        "numberOfBytes": "32",
        "value": "t_uint256"
      },
      "t_uint256": {
        "encoding": "inplace",
        "label": "uint256",
        "numberOfBytes": "32"
      }
    }
  }
}