{
  "address": "0x99C4C22c3Cd7afF8B4F41FCc9C5c9Acf58856f83",
  "abi": [
    {
      "inputs": [],
      "stateMutability": "nonpayable",
      "type": "constructor"
    },
    {
      "inputs": [],
      "name": "InvalidSignatureError",
      "type": "error"
    },
    {
      "inputs": [],
      "name": "OnlyOwnerError",
      "type": "error"
    },
    {
      "inputs": [],
      "name": "SignatureAlreadyUsedError",
      "type": "error"
    },
    {
      "inputs": [],
      "name": "TaskNumberDoesNotExistError",
      "type": "error"
    },
    {
      "inputs": [],
      "name": "UserAlreadyCompletedTaskError",
      "type": "error"
    },
    {
      "inputs": [
        {
          "internalType": "uint256",
          "name": "_prize",
          "type": "uint256"
        }
      ],
      "name": "addTask",
      "outputs": [],
      "stateMutability": "nonpayable",
      "type": "function"
    },
    {
      "inputs": [],
      "name": "readOwner",
      "outputs": [
        {
          "internalType": "address",
          "name": "",
          "type": "address"
        }
      ],
      "stateMutability": "view",
      "type": "function"
    },
    {
      "inputs": [
        {
          "internalType": "uint256",
          "name": "_taskNumber",
          "type": "uint256"
        },
        {
          "internalType": "uint256",
          "name": "_prize",
          "type": "uint256"
        }
      ],
      "name": "setPrizeForTask",
      "outputs": [],
      "stateMutability": "nonpayable",
      "type": "function"
    },
    {
      "inputs": [],
      "name": "taskCount",
      "outputs": [
        {
          "internalType": "uint256",
          "name": "",
          "type": "uint256"
        }
      ],
      "stateMutability": "view",
      "type": "function"
    },
    {
      "inputs": [
        {
          "internalType": "uint256",
          "name": "",
          "type": "uint256"
        }
      ],
      "name": "taskToPrize",
      "outputs": [
        {
          "internalType": "uint256",
          "name": "",
          "type": "uint256"
        }
      ],
      "stateMutability": "view",
      "type": "function"
    },
    {
      "inputs": [
        {
          "internalType": "bytes32",
          "name": "",
          "type": "bytes32"
        }
      ],
      "name": "usedSignatures",
      "outputs": [
        {
          "internalType": "bool",
          "name": "",
          "type": "bool"
        }
      ],
      "stateMutability": "view",
      "type": "function"
    },
    {
      "inputs": [
        {
          "internalType": "address",
          "name": "_user",
          "type": "address"
        }
      ],
      "name": "userBalance",
      "outputs": [
        {
          "internalType": "uint256",
          "name": "",
          "type": "uint256"
        }
      ],
      "stateMutability": "view",
      "type": "function"
    },
    {
      "inputs": [
        {
          "internalType": "address",
          "name": "",
          "type": "address"
        }
      ],
      "name": "userPrizeBalance",
      "outputs": [
        {
          "internalType": "uint256",
          "name": "",
          "type": "uint256"
        }
      ],
      "stateMutability": "view",
      "type": "function"
    },
    {
      "inputs": [
        {
          "internalType": "address",
          "name": "",
          "type": "address"
        },
        {
          "internalType": "uint256",
          "name": "",
          "type": "uint256"
        }
      ],
      "name": "userTaskCompleted",
      "outputs": [
        {
          "internalType": "bool",
          "name": "",
          "type": "bool"
        }
      ],
      "stateMutability": "view",
      "type": "function"
    },
    {
      "inputs": [
        {
          "internalType": "bytes32",
          "name": "_hashedMessage",
          "type": "bytes32"
        },
        {
          "internalType": "uint8",
          "name": "_v",
          "type": "uint8"
        },
        {
          "internalType": "bytes32",
          "name": "_r",
          "type": "bytes32"
        },
        {
          "internalType": "bytes32",
          "name": "_s",
          "type": "bytes32"
        },
        {
          "internalType": "uint256",
          "name": "_taskNumber",
          "type": "uint256"
        }
      ],
      "name": "verifyMessage",
      "outputs": [],
      "stateMutability": "nonpayable",
      "type": "function"
    }
  ],
  "transactionHash": "0x1540844570a034791631509cfe0406d1509bd6110d0eb0649d940dac50d41cf1",
  "args": [],
  "numDeployments": 1,
  "solcInputHash": "20d2ab3777ce38dabf644a8f45e6aa70",
  "bytecode": "0x60a060405234801561001057600080fd5b503373ffffffffffffffffffffffffffffffffffffffff1660808173ffffffffffffffffffffffffffffffffffffffff168152505060008081905550608051610d3561007c600039600081816102b7015281816102dd015281816105d2015261074d0152610d356000f3fe608060405234801561001057600080fd5b506004361061009e5760003560e01c8063a86620f511610066578063a86620f51461016d578063b6cb58a51461019d578063b911c8c8146101bb578063ba73cfc5146101d7578063f978fd61146101f35761009e565b80630103c92b146100a357806348d338d4146100d35780637cba1f39146101035780639389acb5146101335780639e291e3a14610151575b600080fd5b6100bd60048036038101906100b89190610886565b610223565b6040516100ca91906108cc565b60405180910390f35b6100ed60048036038101906100e89190610886565b61026c565b6040516100fa91906108cc565b60405180910390f35b61011d60048036038101906101189190610913565b610284565b60405161012a919061096e565b60405180910390f35b61013b6102b3565b6040516101489190610998565b60405180910390f35b61016b600480360381019061016691906109b3565b6102db565b005b610187600480360381019061018291906109f3565b6103b8565b60405161019491906108cc565b60405180910390f35b6101a56103d0565b6040516101b291906108cc565b60405180910390f35b6101d560048036038101906101d09190610a8f565b6103d6565b005b6101f160048036038101906101ec91906109f3565b61074b565b005b61020d60048036038101906102089190610b0a565b610803565b60405161021a919061096e565b60405180910390f35b6000600460008373ffffffffffffffffffffffffffffffffffffffff1673ffffffffffffffffffffffffffffffffffffffff168152602001908152602001600020549050919050565b60046020528060005260406000206000915090505481565b60026020528160005260406000206020528060005260406000206000915091509054906101000a900460ff1681565b60007f0000000000000000000000000000000000000000000000000000000000000000905090565b7f000000000000000000000000000000000000000000000000000000000000000073ffffffffffffffffffffffffffffffffffffffff163373ffffffffffffffffffffffffffffffffffffffff1614610360576040517f65b4837300000000000000000000000000000000000000000000000000000000815260040160405180910390fd5b60005482111561039c576040517f6002761f00000000000000000000000000000000000000000000000000000000815260040160405180910390fd5b8060016000848152602001908152602001600020819055505050565b60016020528060005260406000206000915090505481565b60005481565b600054811115610412576040517f6002761f00000000000000000000000000000000000000000000000000000000815260040160405180910390fd5b600260003373ffffffffffffffffffffffffffffffffffffffff1673ffffffffffffffffffffffffffffffffffffffff168152602001908152602001600020600082815260200190815260200160002060009054906101000a900460ff16156104a7576040517f759136a200000000000000000000000000000000000000000000000000000000815260040160405180910390fd5b6003600086815260200190815260200160002060009054906101000a900460ff16156104ff576040517f3f2fb4ea00000000000000000000000000000000000000000000000000000000815260040160405180910390fd5b60006040518060400160405280601c81526020017f19457468657265756d205369676e6564204d6573736167653a0a33320000000081525090506000818760405160200161054e929190610bc9565b60405160208183030381529060405280519060200120905060006001828888886040516000815260200160405260405161058b9493929190610c0f565b6020604051602081039080840390855afa1580156105ad573d6000803e3d6000fd5b5050506020604051035190508073ffffffffffffffffffffffffffffffffffffffff167f000000000000000000000000000000000000000000000000000000000000000073ffffffffffffffffffffffffffffffffffffffff160361070f576001600260003373ffffffffffffffffffffffffffffffffffffffff1673ffffffffffffffffffffffffffffffffffffffff168152602001908152602001600020600086815260200190815260200160002060006101000a81548160ff0219169083151502179055506001600085815260200190815260200160002054600460003373ffffffffffffffffffffffffffffffffffffffff1673ffffffffffffffffffffffffffffffffffffffff16815260200190815260200160002060008282546106d79190610c83565b925050819055506001600360008a815260200190815260200160002060006101000a81548160ff021916908315150217905550610741565b6040517fd9681a8600000000000000000000000000000000000000000000000000000000815260040160405180910390fd5b5050505050505050565b7f000000000000000000000000000000000000000000000000000000000000000073ffffffffffffffffffffffffffffffffffffffff163373ffffffffffffffffffffffffffffffffffffffff16146107d0576040517f65b4837300000000000000000000000000000000000000000000000000000000815260040160405180910390fd5b6000808154809291906107e290610cb7565b91905055508060016000805481526020019081526020016000208190555050565b60036020528060005260406000206000915054906101000a900460ff1681565b600080fd5b600073ffffffffffffffffffffffffffffffffffffffff82169050919050565b600061085382610828565b9050919050565b61086381610848565b811461086e57600080fd5b50565b6000813590506108808161085a565b92915050565b60006020828403121561089c5761089b610823565b5b60006108aa84828501610871565b91505092915050565b6000819050919050565b6108c6816108b3565b82525050565b60006020820190506108e160008301846108bd565b92915050565b6108f0816108b3565b81146108fb57600080fd5b50565b60008135905061090d816108e7565b92915050565b6000806040838503121561092a57610929610823565b5b600061093885828601610871565b9250506020610949858286016108fe565b9150509250929050565b60008115159050919050565b61096881610953565b82525050565b6000602082019050610983600083018461095f565b92915050565b61099281610848565b82525050565b60006020820190506109ad6000830184610989565b92915050565b600080604083850312156109ca576109c9610823565b5b60006109d8858286016108fe565b92505060206109e9858286016108fe565b9150509250929050565b600060208284031215610a0957610a08610823565b5b6000610a17848285016108fe565b91505092915050565b6000819050919050565b610a3381610a20565b8114610a3e57600080fd5b50565b600081359050610a5081610a2a565b92915050565b600060ff82169050919050565b610a6c81610a56565b8114610a7757600080fd5b50565b600081359050610a8981610a63565b92915050565b600080600080600060a08688031215610aab57610aaa610823565b5b6000610ab988828901610a41565b9550506020610aca88828901610a7a565b9450506040610adb88828901610a41565b9350506060610aec88828901610a41565b9250506080610afd888289016108fe565b9150509295509295909350565b600060208284031215610b2057610b1f610823565b5b6000610b2e84828501610a41565b91505092915050565b600081519050919050565b600081905092915050565b60005b83811015610b6b578082015181840152602081019050610b50565b60008484015250505050565b6000610b8282610b37565b610b8c8185610b42565b9350610b9c818560208601610b4d565b80840191505092915050565b6000819050919050565b610bc3610bbe82610a20565b610ba8565b82525050565b6000610bd58285610b77565b9150610be18284610bb2565b6020820191508190509392505050565b610bfa81610a20565b82525050565b610c0981610a56565b82525050565b6000608082019050610c246000830187610bf1565b610c316020830186610c00565b610c3e6040830185610bf1565b610c4b6060830184610bf1565b95945050505050565b7f4e487b7100000000000000000000000000000000000000000000000000000000600052601160045260246000fd5b6000610c8e826108b3565b9150610c99836108b3565b9250828201905080821115610cb157610cb0610c54565b5b92915050565b6000610cc2826108b3565b91507fffffffffffffffffffffffffffffffffffffffffffffffffffffffffffffffff8203610cf457610cf3610c54565b5b60018201905091905056fea2646970667358221220ce0e250dab50e4a96aeebbd0b5ac008bdba91d77dec609603bcd50ce63c636d864736f6c63430008120033",
  "devdoc": {
    "kind": "dev",
    "methods": {},
    "version": 1
  },
  "userdoc": {
    "kind": "user",
    "methods": {},
    "version": 1
  },
  "storageLayout": {
    "storage": [
      {
        "astId": 15,
        "contract": "contracts/SignatureVerification.sol:SignatureVerification",
        "label": "taskCount",
        "offset": 0,
        "slot": "0",
        "type": "t_uint256"
      },
      {
        "astId": 19,
        "contract": "contracts/SignatureVerification.sol:SignatureVerification",
        "label": "taskToPrize",
        "offset": 0,
        "slot": "1",
        "type": "t_mapping(t_uint256,t_uint256)"
      },
      {
        "astId": 25,
        "contract": "contracts/SignatureVerification.sol:SignatureVerification",
        "label": "userTaskCompleted",
        "offset": 0,
        "slot": "2",
        "type": "t_mapping(t_address,t_mapping(t_uint256,t_bool))"
      },
      {
        "astId": 29,
        "contract": "contracts/SignatureVerification.sol:SignatureVerification",
        "label": "usedSignatures",
        "offset": 0,
        "slot": "3",
        "type": "t_mapping(t_bytes32,t_bool)"
      },
      {
        "astId": 33,
        "contract": "contracts/SignatureVerification.sol:SignatureVerification",
        "label": "userPrizeBalance",
        "offset": 0,
        "slot": "4",
        "type": "t_mapping(t_address,t_uint256)"
      }
    ],
    "types": {
      "t_address": {
        "encoding": "inplace",
        "label": "address",
        "numberOfBytes": "20"
      },
      "t_bool": {
        "encoding": "inplace",
        "label": "bool",
        "numberOfBytes": "1"
      },
      "t_bytes32": {
        "encoding": "inplace",
        "label": "bytes32",
        "numberOfBytes": "32"
      },
      "t_mapping(t_address,t_mapping(t_uint256,t_bool))": {
        "encoding": "mapping",
        "key": "t_address",
        "label": "mapping(address => mapping(uint256 => bool))",
        "numberOfBytes": "32",
        "value": "t_mapping(t_uint256,t_bool)"
      },
      "t_mapping(t_address,t_uint256)": {
        "encoding": "mapping",
        "key": "t_address",
        "label": "mapping(address => uint256)",
        "numberOfBytes": "32",
        "value": "t_uint256"
      },
      "t_mapping(t_bytes32,t_bool)": {
        "encoding": "mapping",
        "key": "t_bytes32",
        "label": "mapping(bytes32 => bool)",
        "numberOfBytes": "32",
        "value": "t_bool"
      },
      "t_mapping(t_uint256,t_bool)": {
        "encoding": "mapping",
        "key": "t_uint256",
        "label": "mapping(uint256 => bool)",
        "numberOfBytes": "32",
        "value": "t_bool"
      },
      "t_mapping(t_uint256,t_uint256)": {
        "encoding": "mapping",
        "key": "t_uint256",
        "label": "mapping(uint256 => uint256)",
        "numberOfBytes": "32",
        "value": "t_uint256"
      },
      "t_uint256": {
        "encoding": "inplace",
        "label": "uint256",
        "numberOfBytes": "32"
      }
    }
  }
}