{
  "address": "0xD92a916552f411B5948c15468DF5a0784c5c23d5",
  "abi": [
    {
      "inputs": [],
      "stateMutability": "nonpayable",
      "type": "constructor"
    },
    {
      "inputs": [],
      "name": "InvalidSignatureError",
      "type": "error"
    },
    {
      "inputs": [],
      "name": "RefereeIsUserError",
      "type": "error"
    },
    {
      "inputs": [],
      "name": "SignatureAlreadyUsedError",
      "type": "error"
    },
    {
      "inputs": [],
      "name": "TaskNumberDoesNotExistError",
      "type": "error"
    },
    {
      "inputs": [],
      "name": "UserAlreadyCompletedTaskError",
      "type": "error"
    },
    {
      "anonymous": false,
      "inputs": [
        {
          "indexed": true,
          "internalType": "address",
          "name": "previousOwner",
          "type": "address"
        },
        {
          "indexed": true,
          "internalType": "address",
          "name": "newOwner",
          "type": "address"
        }
      ],
      "name": "OwnershipTransferred",
      "type": "event"
    },
    {
      "inputs": [
        {
          "internalType": "uint256",
          "name": "_prize",
          "type": "uint256"
        }
      ],
      "name": "addTask",
      "outputs": [],
      "stateMutability": "nonpayable",
      "type": "function"
    },
    {
      "inputs": [
        {
          "internalType": "uint256",
          "name": "_task",
          "type": "uint256"
        }
      ],
      "name": "getTaskToPrize",
      "outputs": [
        {
          "internalType": "uint256",
          "name": "",
          "type": "uint256"
        }
      ],
      "stateMutability": "view",
      "type": "function"
    },
    {
      "inputs": [],
      "name": "getUserBalance",
      "outputs": [
        {
          "internalType": "uint256",
          "name": "",
          "type": "uint256"
        }
      ],
      "stateMutability": "view",
      "type": "function"
    },
    {
      "inputs": [
        {
          "internalType": "uint256",
          "name": "_task",
          "type": "uint256"
        }
      ],
      "name": "getUserCompletedTasks",
      "outputs": [
        {
          "internalType": "bool",
          "name": "",
          "type": "bool"
        }
      ],
      "stateMutability": "view",
      "type": "function"
    },
    {
      "inputs": [],
      "name": "getUserReferee",
      "outputs": [
        {
          "internalType": "address",
          "name": "",
          "type": "address"
        }
      ],
      "stateMutability": "view",
      "type": "function"
    },
    {
      "inputs": [],
      "name": "owner",
      "outputs": [
        {
          "internalType": "address",
          "name": "",
          "type": "address"
        }
      ],
      "stateMutability": "view",
      "type": "function"
    },
    {
      "inputs": [],
      "name": "renounceOwnership",
      "outputs": [],
      "stateMutability": "nonpayable",
      "type": "function"
    },
    {
      "inputs": [
        {
          "internalType": "uint256",
          "name": "_taskNumber",
          "type": "uint256"
        },
        {
          "internalType": "uint256",
          "name": "_prize",
          "type": "uint256"
        }
      ],
      "name": "setPrizeForTask",
      "outputs": [],
      "stateMutability": "nonpayable",
      "type": "function"
    },
    {
      "inputs": [
        {
          "internalType": "address",
          "name": "_referee",
          "type": "address"
        }
      ],
      "name": "setReferee",
      "outputs": [],
      "stateMutability": "nonpayable",
      "type": "function"
    },
    {
      "inputs": [],
      "name": "taskCount",
      "outputs": [
        {
          "internalType": "uint256",
          "name": "",
          "type": "uint256"
        }
      ],
      "stateMutability": "view",
      "type": "function"
    },
    {
      "inputs": [
        {
          "internalType": "address",
          "name": "newOwner",
          "type": "address"
        }
      ],
      "name": "transferOwnership",
      "outputs": [],
      "stateMutability": "nonpayable",
      "type": "function"
    },
    {
      "inputs": [
        {
          "internalType": "bytes32",
          "name": "_hashedMessage",
          "type": "bytes32"
        },
        {
          "internalType": "uint8",
          "name": "_v",
          "type": "uint8"
        },
        {
          "internalType": "bytes32",
          "name": "_r",
          "type": "bytes32"
        },
        {
          "internalType": "bytes32",
          "name": "_s",
          "type": "bytes32"
        },
        {
          "internalType": "uint256",
          "name": "_taskNumber",
          "type": "uint256"
        }
      ],
      "name": "verifyMessage",
      "outputs": [],
      "stateMutability": "nonpayable",
      "type": "function"
    }
  ],
  "transactionHash": "0xe9a90eac6463fba7264121e80ce290dfcb53ba29feaecb8dc580feb2da2e3c17",
  "args": [],
  "numDeployments": 3,
  "solcInputHash": "fd47bc23e0b13f3a9f9eea9426583719",
  "bytecode": "0x60a060405234801561001057600080fd5b5061002d61002261006e60201b60201c565b61007660201b60201c565b3373ffffffffffffffffffffffffffffffffffffffff1660808173ffffffffffffffffffffffffffffffffffffffff1681525050600060018190555061013a565b600033905090565b60008060009054906101000a900473ffffffffffffffffffffffffffffffffffffffff169050816000806101000a81548173ffffffffffffffffffffffffffffffffffffffff021916908373ffffffffffffffffffffffffffffffffffffffff1602179055508173ffffffffffffffffffffffffffffffffffffffff168173ffffffffffffffffffffffffffffffffffffffff167f8be0079c531659141344cd1fd0a4f28419497f9722a3daafe3b4186f6b6457e060405160405180910390a35050565b6080516112c1610155600039600061059101526112c16000f3fe608060405234801561001057600080fd5b50600436106100b45760003560e01c8063b7013dc111610071578063b7013dc11461017b578063b911c8c814610199578063ba73cfc5146101b5578063c4a796c1146101d1578063f2fde38b146101ed578063f6c4254c14610209576100b4565b8063400d7881146100b9578063715018a6146100e95780638d12f546146100f35780638da5cb5b146101235780639e291e3a14610141578063b6cb58a51461015d575b600080fd5b6100d360048036038101906100ce9190610ce8565b610227565b6040516100e09190610d24565b60405180910390f35b6100f1610244565b005b61010d60048036038101906101089190610ce8565b610258565b60405161011a9190610d5a565b60405180910390f35b61012b6102bf565b6040516101389190610db6565b60405180910390f35b61015b60048036038101906101569190610dd1565b6102e8565b005b610165610348565b6040516101729190610d24565b60405180910390f35b61018361034e565b6040516101909190610d24565b60405180910390f35b6101b360048036038101906101ae9190610e80565b610395565b005b6101cf60048036038101906101ca9190610ce8565b61087a565b005b6101eb60048036038101906101e69190610f27565b6108b7565b005b61020760048036038101906102029190610f27565b610a79565b005b610211610afc565b60405161021e9190610db6565b60405180910390f35b600060026000838152602001908152602001600020549050919050565b61024c610b63565b6102566000610be1565b565b6000600360003373ffffffffffffffffffffffffffffffffffffffff1673ffffffffffffffffffffffffffffffffffffffff168152602001908152602001600020600083815260200190815260200160002060009054906101000a900460ff169050919050565b60008060009054906101000a900473ffffffffffffffffffffffffffffffffffffffff16905090565b6102f0610b63565b60015482111561032c576040517f6002761f00000000000000000000000000000000000000000000000000000000815260040160405180910390fd5b8060026000848152602001908152602001600020819055505050565b60015481565b6000600560003373ffffffffffffffffffffffffffffffffffffffff1673ffffffffffffffffffffffffffffffffffffffff16815260200190815260200160002054905090565b6001548111156103d1576040517f6002761f00000000000000000000000000000000000000000000000000000000815260040160405180910390fd5b600360003373ffffffffffffffffffffffffffffffffffffffff1673ffffffffffffffffffffffffffffffffffffffff168152602001908152602001600020600082815260200190815260200160002060009054906101000a900460ff1615610466576040517f759136a200000000000000000000000000000000000000000000000000000000815260040160405180910390fd5b6004600086815260200190815260200160002060009054906101000a900460ff16156104be576040517f3f2fb4ea00000000000000000000000000000000000000000000000000000000815260040160405180910390fd5b60006040518060400160405280601c81526020017f19457468657265756d205369676e6564204d6573736167653a0a33320000000081525090506000818760405160200161050d929190610fe6565b60405160208183030381529060405280519060200120905060006001828888886040516000815260200160405260405161054a949392919061102c565b6020604051602081039080840390855afa15801561056c573d6000803e3d6000fd5b5050506020604051035190508073ffffffffffffffffffffffffffffffffffffffff167f000000000000000000000000000000000000000000000000000000000000000073ffffffffffffffffffffffffffffffffffffffff160361083e576001600360003373ffffffffffffffffffffffffffffffffffffffff1673ffffffffffffffffffffffffffffffffffffffff168152602001908152602001600020600086815260200190815260200160002060006101000a81548160ff02191690831515021790555060006002600086815260200190815260200160002054905080600560003373ffffffffffffffffffffffffffffffffffffffff1673ffffffffffffffffffffffffffffffffffffffff168152602001908152602001600020600082825461069b91906110a0565b925050819055506001600460008b815260200190815260200160002060006101000a81548160ff0219169083151502179055506000600660003373ffffffffffffffffffffffffffffffffffffffff1673ffffffffffffffffffffffffffffffffffffffff16815260200190815260200160002060009054906101000a900473ffffffffffffffffffffffffffffffffffffffff169050600073ffffffffffffffffffffffffffffffffffffffff168173ffffffffffffffffffffffffffffffffffffffff1614610837576000600a836107759190611103565b905060006032846107869190611103565b905081600560008573ffffffffffffffffffffffffffffffffffffffff1673ffffffffffffffffffffffffffffffffffffffff16815260200190815260200160002060008282546107d791906110a0565b9250508190555080600560003373ffffffffffffffffffffffffffffffffffffffff1673ffffffffffffffffffffffffffffffffffffffff168152602001908152602001600020600082825461082d91906110a0565b9250508190555050505b5050610870565b6040517fd9681a8600000000000000000000000000000000000000000000000000000000815260040160405180910390fd5b5050505050505050565b610882610b63565b6001600081548092919061089590611134565b9190505550806002600060015481526020019081526020016000208190555050565b3373ffffffffffffffffffffffffffffffffffffffff168173ffffffffffffffffffffffffffffffffffffffff160361091c576040517f9d08223000000000000000000000000000000000000000000000000000000000815260040160405180910390fd5b600760003373ffffffffffffffffffffffffffffffffffffffff1673ffffffffffffffffffffffffffffffffffffffff16815260200190815260200160002060009054906101000a900460ff16156109a0576040517f9d08223000000000000000000000000000000000000000000000000000000000815260040160405180910390fd5b80600660003373ffffffffffffffffffffffffffffffffffffffff1673ffffffffffffffffffffffffffffffffffffffff16815260200190815260200160002060006101000a81548173ffffffffffffffffffffffffffffffffffffffff021916908373ffffffffffffffffffffffffffffffffffffffff1602179055506001600760003373ffffffffffffffffffffffffffffffffffffffff1673ffffffffffffffffffffffffffffffffffffffff16815260200190815260200160002060006101000a81548160ff02191690831515021790555050565b610a81610b63565b600073ffffffffffffffffffffffffffffffffffffffff168173ffffffffffffffffffffffffffffffffffffffff1603610af0576040517f08c379a0000000000000000000000000000000000000000000000000000000008152600401610ae7906111ff565b60405180910390fd5b610af981610be1565b50565b6000600660003373ffffffffffffffffffffffffffffffffffffffff1673ffffffffffffffffffffffffffffffffffffffff16815260200190815260200160002060009054906101000a900473ffffffffffffffffffffffffffffffffffffffff16905090565b610b6b610ca5565b73ffffffffffffffffffffffffffffffffffffffff16610b896102bf565b73ffffffffffffffffffffffffffffffffffffffff1614610bdf576040517f08c379a0000000000000000000000000000000000000000000000000000000008152600401610bd69061126b565b60405180910390fd5b565b60008060009054906101000a900473ffffffffffffffffffffffffffffffffffffffff169050816000806101000a81548173ffffffffffffffffffffffffffffffffffffffff021916908373ffffffffffffffffffffffffffffffffffffffff1602179055508173ffffffffffffffffffffffffffffffffffffffff168173ffffffffffffffffffffffffffffffffffffffff167f8be0079c531659141344cd1fd0a4f28419497f9722a3daafe3b4186f6b6457e060405160405180910390a35050565b600033905090565b600080fd5b6000819050919050565b610cc581610cb2565b8114610cd057600080fd5b50565b600081359050610ce281610cbc565b92915050565b600060208284031215610cfe57610cfd610cad565b5b6000610d0c84828501610cd3565b91505092915050565b610d1e81610cb2565b82525050565b6000602082019050610d396000830184610d15565b92915050565b60008115159050919050565b610d5481610d3f565b82525050565b6000602082019050610d6f6000830184610d4b565b92915050565b600073ffffffffffffffffffffffffffffffffffffffff82169050919050565b6000610da082610d75565b9050919050565b610db081610d95565b82525050565b6000602082019050610dcb6000830184610da7565b92915050565b60008060408385031215610de857610de7610cad565b5b6000610df685828601610cd3565b9250506020610e0785828601610cd3565b9150509250929050565b6000819050919050565b610e2481610e11565b8114610e2f57600080fd5b50565b600081359050610e4181610e1b565b92915050565b600060ff82169050919050565b610e5d81610e47565b8114610e6857600080fd5b50565b600081359050610e7a81610e54565b92915050565b600080600080600060a08688031215610e9c57610e9b610cad565b5b6000610eaa88828901610e32565b9550506020610ebb88828901610e6b565b9450506040610ecc88828901610e32565b9350506060610edd88828901610e32565b9250506080610eee88828901610cd3565b9150509295509295909350565b610f0481610d95565b8114610f0f57600080fd5b50565b600081359050610f2181610efb565b92915050565b600060208284031215610f3d57610f3c610cad565b5b6000610f4b84828501610f12565b91505092915050565b600081519050919050565b600081905092915050565b60005b83811015610f88578082015181840152602081019050610f6d565b60008484015250505050565b6000610f9f82610f54565b610fa98185610f5f565b9350610fb9818560208601610f6a565b80840191505092915050565b6000819050919050565b610fe0610fdb82610e11565b610fc5565b82525050565b6000610ff28285610f94565b9150610ffe8284610fcf565b6020820191508190509392505050565b61101781610e11565b82525050565b61102681610e47565b82525050565b6000608082019050611041600083018761100e565b61104e602083018661101d565b61105b604083018561100e565b611068606083018461100e565b95945050505050565b7f4e487b7100000000000000000000000000000000000000000000000000000000600052601160045260246000fd5b60006110ab82610cb2565b91506110b683610cb2565b92508282019050808211156110ce576110cd611071565b5b92915050565b7f4e487b7100000000000000000000000000000000000000000000000000000000600052601260045260246000fd5b600061110e82610cb2565b915061111983610cb2565b925082611129576111286110d4565b5b828204905092915050565b600061113f82610cb2565b91507fffffffffffffffffffffffffffffffffffffffffffffffffffffffffffffffff820361117157611170611071565b5b600182019050919050565b600082825260208201905092915050565b7f4f776e61626c653a206e6577206f776e657220697320746865207a65726f206160008201527f6464726573730000000000000000000000000000000000000000000000000000602082015250565b60006111e960268361117c565b91506111f48261118d565b604082019050919050565b60006020820190508181036000830152611218816111dc565b9050919050565b7f4f776e61626c653a2063616c6c6572206973206e6f7420746865206f776e6572600082015250565b600061125560208361117c565b91506112608261121f565b602082019050919050565b6000602082019050818103600083015261128481611248565b905091905056fea2646970667358221220d97728bd594a301806ff999320ba34215520e7f9ba732d71e6e3af1dc1d4668864736f6c63430008120033",
  "devdoc": {
    "kind": "dev",
    "methods": {
      "owner()": {
        "details": "Returns the address of the current owner."
      },
      "renounceOwnership()": {
        "details": "Leaves the contract without owner. It will not be possible to call `onlyOwner` functions. Can only be called by the current owner. NOTE: Renouncing ownership will leave the contract without an owner, thereby disabling any functionality that is only available to the owner."
      },
      "transferOwnership(address)": {
        "details": "Transfers ownership of the contract to a new account (`newOwner`). Can only be called by the current owner."
      }
    },
    "version": 1
  },
  "userdoc": {
    "kind": "user",
    "methods": {},
    "version": 1
  },
  "storageLayout": {
    "storage": [
      {
        "astId": 7,
        "contract": "contracts/SignatureVerification.sol:SignatureVerification",
        "label": "_owner",
        "offset": 0,
        "slot": "0",
        "type": "t_address"
      },
      {
        "astId": 163,
        "contract": "contracts/SignatureVerification.sol:SignatureVerification",
        "label": "taskCount",
        "offset": 0,
        "slot": "1",
        "type": "t_uint256"
      },
      {
        "astId": 167,
        "contract": "contracts/SignatureVerification.sol:SignatureVerification",
        "label": "taskToPrize",
        "offset": 0,
        "slot": "2",
        "type": "t_mapping(t_uint256,t_uint256)"
      },
      {
        "astId": 173,
        "contract": "contracts/SignatureVerification.sol:SignatureVerification",
        "label": "userTaskCompleted",
        "offset": 0,
        "slot": "3",
        "type": "t_mapping(t_address,t_mapping(t_uint256,t_bool))"
      },
      {
        "astId": 177,
        "contract": "contracts/SignatureVerification.sol:SignatureVerification",
        "label": "usedSignatures",
        "offset": 0,
        "slot": "4",
        "type": "t_mapping(t_bytes32,t_bool)"
      },
      {
        "astId": 181,
        "contract": "contracts/SignatureVerification.sol:SignatureVerification",
        "label": "userPrizeBalance",
        "offset": 0,
        "slot": "5",
        "type": "t_mapping(t_address,t_uint256)"
      },
      {
        "astId": 185,
        "contract": "contracts/SignatureVerification.sol:SignatureVerification",
        "label": "userReferee",
        "offset": 0,
        "slot": "6",
        "type": "t_mapping(t_address,t_address)"
      },
      {
        "astId": 189,
        "contract": "contracts/SignatureVerification.sol:SignatureVerification",
        "label": "userSetReferee",
        "offset": 0,
        "slot": "7",
        "type": "t_mapping(t_address,t_bool)"
      }
    ],
    "types": {
      "t_address": {
        "encoding": "inplace",
        "label": "address",
        "numberOfBytes": "20"
      },
      "t_bool": {
        "encoding": "inplace",
        "label": "bool",
        "numberOfBytes": "1"
      },
      "t_bytes32": {
        "encoding": "inplace",
        "label": "bytes32",
        "numberOfBytes": "32"
      },
      "t_mapping(t_address,t_address)": {
        "encoding": "mapping",
        "key": "t_address",
        "label": "mapping(address => address)",
        "numberOfBytes": "32",
        "value": "t_address"
      },
      "t_mapping(t_address,t_bool)": {
        "encoding": "mapping",
        "key": "t_address",
        "label": "mapping(address => bool)",
        "numberOfBytes": "32",
        "value": "t_bool"
      },
      "t_mapping(t_address,t_mapping(t_uint256,t_bool))": {
        "encoding": "mapping",
        "key": "t_address",
        "label": "mapping(address => mapping(uint256 => bool))",
        "numberOfBytes": "32",
        "value": "t_mapping(t_uint256,t_bool)"
      },
      "t_mapping(t_address,t_uint256)": {
        "encoding": "mapping",
        "key": "t_address",
        "label": "mapping(address => uint256)",
        "numberOfBytes": "32",
        "value": "t_uint256"
      },
      "t_mapping(t_bytes32,t_bool)": {
        "encoding": "mapping",
        "key": "t_bytes32",
        "label": "mapping(bytes32 => bool)",
        "numberOfBytes": "32",
        "value": "t_bool"
      },
      "t_mapping(t_uint256,t_bool)": {
        "encoding": "mapping",
        "key": "t_uint256",
        "label": "mapping(uint256 => bool)",
        "numberOfBytes": "32",
        "value": "t_bool"
      },
      "t_mapping(t_uint256,t_uint256)": {
        "encoding": "mapping",
        "key": "t_uint256",
        "label": "mapping(uint256 => uint256)",
        "numberOfBytes": "32",
        "value": "t_uint256"
      },
      "t_uint256": {
        "encoding": "inplace",
        "label": "uint256",
        "numberOfBytes": "32"
      }
    }
  }
}